:020000040800F2
:10000000C005002001010008B9130008751100089F
:10001000B51300085B0900082F2400080000000049
:100020000000000000000000000000008916000829
:10003000190E0008000000008D1400087517000854
:100040001B0100081B0100081B0100081B01000820
:100050001B0100081B0100081B0100081B01000810
:100060001B0100081B0100081B0E00081B010008F3
:100070001B0100081B0100081B0100081B010008F0
:100080001B010008410C00081B0100081B010008AF
:100090001B0100081B0100081B0100082D0E0008B1
:1000A0001B010008A51A00081B0100081B0100081D
:1000B000BD1B00081B010008D51C00081B0100081F
:1000C0001B0100081B0100081B0100081B010008A0
:1000D0001B010008D92100081B010008AD220008FF
:1000E0001B0100081B0100081B010008DFF80CD0F1
:1000F00000F09CFA0048004751290008C005002084
:100100000648804706480047FEE7FEE7FEE7FEE7B1
:10011000FEE7FEE7FEE7FEE7FEE7FEE7051800085C
:10012000ED0000082DE9FE4F804681EA0300C00F74
:100130000C46009021F0004123F00045B8EB02008E
:10014000A94105D24046214690461C460B46024630
:1001500023F00040104347D0270DC7F30A00C3F334
:100160000A510290401A019040286BDAC3F3130041
:1001700040F4801B0098924620B10023D2EB030A82
:1001800063EB0B0B01985946C0F14002504600F05A
:100190004FF906460D4650465946019A00F067F958
:1001A00010EB08006141002487EA115284EAE773EA
:1001B0001A4340D0009A62B3019A012A4FEA0752CB
:1001C00015DC001B61EB02014FF0004202EA07520E
:1001D000CDE90042001C41F5801132462B4600F06B
:1001E00067F903B0BDE8F08F40462146F9E7001BF0
:1001F00061EB0201001C41F5801300185B412018DF
:10020000A2F5001747EB030140EAD570B6196D411E
:1002100011E06D084FEA360645EAC0754FEA07520D
:10022000001B61EB0201001C41F5801149084FEAF7
:1002300030000019514132462B4603B0BDE8F04F63
:1002400000F027B90098012240000023D0EB020201
:1002500063EBE073009821464FEAE074B8EB0000CE
:1002600061EB0401E9E783F000435BE781F00041C3
:1002700058E72DE9FE4F81EA030404F0004421F021
:10028000004100944FF0000B23F0004350EA0104BA
:100290005ED052EA03045BD0C3F30A54C1F30A559B
:1002A0002C44A4F2F3340194A0FB0254C1F31301D3
:1002B00041F48011C3F3130343F4801301FB0244A0
:1002C00000FB034E840A970A44EA815447EA8357A5
:1002D000A4FB076802958D0A05FB07854FEA932C5E
:1002E00004FB0C542705029D4FEA065847EA1637CF
:1002F000B5EB08056EEB070C870E920E47EA8117E7
:1003000042EA8312A7FB0201B6EB0B0164EB000487
:100310002B0D43EA0C335E1844EB1C50DA46514671
:10032000E7FB0201C5F313044FEA0B3343EA14530E
:100330004FEA0432019C43EA0603A4F10C04029440
:10034000009CCDE900B400F0B3F803B0BDE8F08F35
:1003500000200146F9E70EB5C10F80EAE0700844BD
:10036000CA07002140F233438DE80E000A460B46CF
:1003700000F09EF803B000BD0EB540F2334102918B
:100380000021CDE900110A460B4600F091F803B0B8
:1003900000BD70B5C1F30A5201F000450024C1F35D
:1003A000130140F2FF3341F480119A4201DA002038
:1003B00070BD40F233439A42A2F2334203DC524210
:1003C00000F045F800E090402C43F1D0404270BD71
:1003D00030B5041E71F1000404DB4FF000444042CC
:1003E00064EB0101141E73F1000405DB1C464FF0A1
:1003F0000043524263EB04038B4208BF824230BD8C
:1004000030B5041E71F1000404DB4FF0004440429B
:1004100064EB0101141E73F1000405DB1C464FF070
:100420000043524263EB0403994208BF904230BD3F
:10043000202A04DB203A00FA02F1002070479140A4
:10044000C2F1200320FA03F3194390407047202A99
:1004500004DB203A21FA02F00021704721FA02F36E
:10046000D040C2F120029140084319467047202A2B
:1004700006DBCB17203A41FA02F043EAE07306E0CC
:1004800041FA02F3D040C2F12002914008431946DC
:10049000704710B5141E73F1000408DA401C41F1D6
:1004A000000192185B411A4301D120F0010010BDF8
:1004B0002DE9F04D92469B4611B1B1FA81F202E06E
:1004C000B0FA80F220329046FFF7B2FF04460F46A2
:1004D00040EA0A0041EA0B0153465A46084313D04A
:1004E000114653EA010019D0C8F140025046FFF707
:1004F000AEFF05460E46504659464246FFF798FF66
:10050000084305D0012004E020463946BDE8F08DBF
:100510000020054346EAE0762C4337430A986305FA
:10052000E40AA0EB08000022FD0A44EA47540A301E
:1005300002D500200146E9E7010510196941DDE90E
:10054000084500196941BDE8F04DA2E72DE9F04DDD
:1005500081EA030404F0004B21F0004514464FF0FB
:10056000000A23F0004150EA050220D054EA0102BB
:100570001DD0C5F30A570246C5F31303C1F3130098
:10058000C1F30A5640F4801543F48013A7EB060824
:10059000101BD64608F2FD3873EB050002D308F1B4
:1005A000010801E092185B41B8F1000F03DA002066
:1005B0000146BDE8F08D00204FF4801106468446C8
:1005C0000EE0171B73EB050705D3121B63EB050346
:1005D00006434CEA010C49084FEA300092185B418F
:1005E00050EA0107EDD152EA030012D082EA04007A
:1005F00083EA0501084305D0101BAB4106D2012256
:10060000002306E000224FF0004302E06FF00102F9
:1006100053101AEB06004CEB085110EB0A0041EBAB
:100620000B01BDE8F04DFFF734BF0000064C074D4D
:1006300006E0E06840F0010394E8070098471034B2
:10064000AC42F6D3FFF756FDE02B0008002C000863
:1006500070B521F0004303430CD0C1F30A550024C8
:10066000D5EB040564EB0403D617AD1AB34102DBE6
:100670000020014670BD201841EB025170BD000002
:1006800000B591B0002204214E4802F029FA002260
:1006900008214C4802F024FA00221021494802F0B7
:1006A0001FFA00222021474802F01AFA00224021B6
:1006B000444802F015FA0121084600F0E9FE4248DC
:1006C00000F0D0FA41480690414807900020089079
:1006D0000520099000200A9080200B9040000C908B
:1006E00080000D9020200E9000020F9000201090AE
:1006F00006A9354800F072FB0121334800F0A6FA44
:100700000121480200F0E4FE0020019001208DF854
:1007100008008DF809004FF4602003900020049039
:1007200005208DF8140001A928484C3800F07CF809
:1007300005230122022125484C3800F09DF80523AD
:100740000222032121484C3800F096F805230322A9
:1007500004211E484C3800F08FF805230422194666
:100760001A484C3800F088F805231A460621174825
:100770004C3800F081F8012114484C3800F035F86D
:10078000012112484C3800F025F810484C3800F090
:10079000CFF800BF0D484C3800F03CF80028F9D1E4
:1007A0000A484C3800F0D4F800BF08484C3800F034
:1007B00027F80028F9D1012104484C3800F0BDF891
:1007C00011B000BD00080140080002404C24014067
:1007D0008C00002021B1826842F00102826003E0B7
:1007E000826822F001028260704721B1826842F47F
:1007F0008072826003E0826822F4807282607047B7
:10080000014600208A6802F004020AB1012000E0DB
:1008100000207047014600208A6802F008020AB1F1
:10082000012000E00020704730B502460020002380
:1008300050680F4C20400D790C6844EA0524204391
:10084000506090680B4C2040D1E902542C434D7904
:1008500044EA450420439060D06A20F470000C7C88
:10086000641EE4B2234340EA0350D06230BD00006E
:10087000FFFEF0FFFDF7F1FFF0B504460D46002046
:100880000021092D11DDE068A5F10A0606EB4607F7
:10089000072606FA07F18843A5F10A0606EB460685
:1008A00003FA06F10843E0600CE0206905EB450718
:1008B000072606FA07F1884305EB450603FA06F119
:1008C00008432061072A0FDA606B561E06EB860785
:1008D0001F2606FA07F18843561E06EB860605FA20
:1008E00006F10843606322E00D2A0FDA206BD61F61
:1008F00006EB86071F2606FA07F18843D61F06EB8C
:10090000860605FA06F10843206310E0E06AA2F1CA
:100910000D0606EB86071F2606FA07F18843A2F1AB
:100920000D0606EB860605FA06F10843E062F0BD07
:10093000816841F008018160704721B1826842F40A
:10094000A002826003E0826822F4A0028260704705
:10095000816841F004018160704700BFFEE700003C
:100960002DE9FC5F2248D0E906432246214903C90C
:10097000FFF779FCCDE900011F48D0E908431C4886
:100980002246D0E904613046FFF773FC8046894671
:100990001748D0E900412046DDE90023FFF769FC54
:1009A000824642464B46FFF7BDFB114AC2E90801A9
:1009B00010460022114BD0E908412046FFF720FDE8
:1009C00005D200210D480A4AC2E908100DE0084886
:1009D00000220B4BD0E908412046FFF7F9FC04D276
:1009E00000210748024AC2E90810BDE8FC9F000048
:1009F000C0000020400000209800002000408F40F0
:100A000000408FC02DE9FC5F2948D0E9064322460B
:100A1000284903C9FFF727FCCDE9000126492448EE
:100A2000D1E906432246D0E904613046FFF721FCB4
:100A3000804689461E48D0E900412046DDE9002372
:100A4000FFF717FC824642464B46FFF76BFB184AFE
:100A5000C2E908011146D1E90841002213462046A7
:100A6000FFF7CEFC10D21548B0F90000FFF773FC79
:100A700004460F48D0E9086332462046FFF752FB90
:100A80000B4AC2E9080110E00C48B0F90000FFF77A
:100A900062FC04460D460649D1E908633246294600
:100AA000FFF7E4FB024AC2E90801BDE8FC9F000031
:100AB000000100204800002098000020880000204D
:100AC0002DE9F05F01F038FF0646FFF744FC0446CD
:100AD0002148D0E9026332462046FFF7CAFB804630
:100AE00089461D48D0E900411C480CC82046FFF744
:100AF000C0FB824642464B46FFF714FB164AC2E94A
:100B000008011146D1E908410022154B2046FFF7A4
:100B100077FC05D2002112480F4AC2E908100DE007
:100B20000D49D1E9084100220E4B2046FFF750FC49
:100B300004D200200B49084AC2E908010648D0E95E
:100B400008432246084903C9FFF7ECFA074AC2E9FD
:100B50000601BDE8F09F0000400100205800002081
:100B600000001440000014C078000020C0000020E5
:100B70002DE9FC5F2C48D0E9064322462B4903C9E6
:100B8000FFF771FBCDE900012748D0E90A41204673
:100B9000DDE90023FFF7C6FA234AC2E90A0110463D
:100BA000D0E90A432246D0E902613046FFF761FBF3
:100BB000804689461C48D0E900411C480CC82046A4
:100BC000FFF757FB824642464B46FFF7ABFA164A01
:100BD000C2E908011146D1E908410022144B204620
:100BE000FFF70EFC05D2002111480F4AC2E9081098
:100BF0000DE00D4800220F4BD0E908412046FFF7D9
:100C0000E7FB04D200210B48074AC2E90810064856
:100C1000D0E908432246084903C9FFF724FB074AE5
:100C2000C2E90601BDE8FC9F8001002060000020B1
:100C300000002440000024C08000002000010020AB
:100C400010B54FF0007000F0B3F810BD21B102688C
:100C500042F00102026004E002684FF6FE731A409F
:100C60000260704701684FF6FE721140016000217A
:100C7000016041608160C1604B49884208D14A49A6
:100C80000839496841F00F01474A083A51608AE043
:100C900045491431884208D143490839496841F02F
:100CA000F001414A083A51607DE03F4928318842CD
:100CB00008D13D490839496841F470613A4A083A17
:100CC000516070E038493C31884208D136490839D2
:100CD000496841F47041344A083A516063E032494E
:100CE0005031884208D130490839496841F47021AF
:100CF0002D4A083A516056E02B496431884208D1A8
:100D000029490839496841F47001274A083A516075
:100D100049E025497831884208D123490839496892
:100D200041F07061204A083A51603CE01F49884216
:100D300006D1011F096841F00F01021F116032E066
:100D40001A491431884208D11849091F096841F02D
:100D5000F001164A121F116025E01449283188421B
:100D600008D11249091F096841F470610F4A121F26
:100D7000116018E00D493C31884208D10B49091F28
:100D8000096841F47041094A121F11600BE00749DC
:100D90005031884207D10549091F096841F4702183
:100DA000024A121F11607047080002400804024006
:100DB00001460020002201F0805313B1054B1A6850
:100DC00001E0054B1A6802EA01030BB1012000E0C3
:100DD00000207047000402400000024010B50022CD
:100DE000026847F6F0739A430C6A8B6823430C69D8
:100DF00023434C6923438C692343CC6923434C6AC6
:100E000023438C6A23431A430260CB6843600B6818
:100E100083604B68C36010BD704710B5102000F0B0
:100E200011F810B1102000F007F810BD10B54FF404
:100E3000007000F001F810BD014908607047000023
:100E400014040140014600200022074B1B6803EAFE
:100E50000102054B14331B680B4013B10AB101208A
:100E600000E00020704700000004014000B589B098
:100E70000121084600F01CFB0121042000F028FBA2
:100E80000320ADF8200048208DF8230008A922484F
:100E900000F09CF81C208DF81C000A208DF81D0025
:100EA00000208DF81E0001208DF81F0007A800F01B
:100EB00085FA0020ADF8100042F21070ADF8140071
:100EC0000020ADF81600ADF8120004A94FF08040E4
:100ED00001F0F0F80120ADF80C0001A9800700F046
:100EE00057FF00231A4603214FF0804000F02EFFE9
:100EF0000121880700F018FF01221146900700F039
:100F00009DFF00204FF0804188840121880700F078
:100F100011FF09B000BD00000008014000B589B014
:100F20000121042000F0C4FA0121082000F0D0FAC9
:100F3000C020ADF8200048208DF8230008A92148E2
:100F400000F044F81E208DF81C0009208DF81D00CB
:100F500000208DF81E0001208DF81F0007A800F06A
:100F60002DFA0020ADF8100042F21070ADF8140018
:100F70000020ADF81600ADF8120004A9124801F0E7
:100F800099F80120ADF80C0001A90F4800F000FF0E
:100F900000231A4603210C4800F0D8FE01210A481C
:100FA00000F0C2FE01221146074800F047FF002072
:100FB0000549243108800121034800F0BBFE09B037
:100FC00000BD0000000C0140000800402DE9F04188
:100FD000024600250026002000230024002791F867
:100FE00003C00CF00F0591F803C00CF0100CBCF11D
:100FF000000F03D091F802C04CEA050591F800C03B
:10100000BCF1000F31D0146800202BE04FF0010C30
:101010000CFA00F3B1F800C00CEA03069E4220D19E
:1010200083004FF00F0C0CFA03F7BC4305FA03FCE6
:101030004CEA040491F803C0BCF1280F06D14FF02C
:10104000010C0CFA00FCC2F814C00AE091F803C0CD
:10105000BCF1480F05D14FF0010C0CFA00FCC2F8AE
:1010600010C0401C0828D1D31460B1F800C0BCF1F6
:10107000FF0F34DD546800202EE000F1080C4FF023
:10108000010808FA0CF3B1F800C00CEA03069E420E
:1010900021D183004FF00F0C0CFA03F7BC4305FA83
:1010A00003FC4CEA040491F803C0BCF1280F05D1FD
:1010B00000F1080C08FA0CF8C2F8148091F803C08B
:1010C000BCF1480F07D100F1080C4FF0010808FAF5
:1010D0000CF8C2F81080401C0828CED35460BDE83C
:1010E000F0810000F0B50A4600230024002100250D
:1010F00000F00046B6F1004F02D11D4EF16901E04B
:101100001B4E7168C0F3034583B200F44016B6F578
:10111000401F08D121F07061154E766826F0706688
:10112000134F7E6012E000F48016B6F5801F06D1E2
:10113000032606FA05F4A14341F0706106E0460D6E
:10114000360103FA06F6B14341F0706122B1460D53
:10115000360103FA06F6314300F00046B6F1004FBF
:1011600002D1034EF16101E0014E7160F0BD00005B
:101170000000014000BFFEE72DE9F04F8BB0604951
:101180000988A1F63400FFF7E6F85E4A03C25C491D
:101190004988A1F65200FFF7DEF85A4AC2E9020177
:1011A00057498988A1F5C360FFF7D5F8554AC2E9C8
:1011B00004015349C988A1F2F370FFF7CCF8514AF2
:1011C000C2E906014E490989A1F64E00FFF7C3F8AE
:1011D0004C4AC2E908011146D1E9048181F000437B
:1011E0001146D1E900614246304601F0B9FA0446A1
:1011F0000022454BFFF73DF8CDE908014149D1E90F
:10120000044181F000433F49D1E902612246304662
:1012100001F0A6FA804600223B4BFFF72AF8CDE901
:1012200006014FF033303949DDE90623FFF721F895
:101230008046894601F044FC35490968461A304623
:10124000FFF79AF8CDE900012E48D0E9086332464D
:101250000098FFF70EF82F4A2F4BCDE90201FFF758
:1012600008F8CDE904012D480CC80498FEF75AFF90
:1012700004464FF066322A4BFEF7FBFF8246424699
:101280004B46FEF7F0FF254A03C24FF033301F49AB
:10129000DDE90823FEF7EDFFCDE9040101F010FCC4
:1012A0001B490968461A3046FFF766F80446154898
:1012B000D0E9066332462046FEF7DBFF8246154A38
:1012C000154BFEF7D6FF804616480CC84046FEF781
:1012D00029FF4FF06632124BCDE90001FEF7C9FF3E
:1012E000CDE90201DDE90423FEF7BDFF0D4A03C28B
:1012F00001F0E6FB064908600BB0BDE8F08F000086
:101300008C00002098000020000050403333D33F71
:101310005000002076830DF4F521943E400000201B
:101320006666E63F4800002010B50446002C0FDD3D
:10133000012208210E4801F0E1FA00224FF4005189
:101340000B4801F0DBFAA1B2022000F079F80EE0C0
:1013500000220821064801F0D1FA01225103044875
:1013600001F0CCFA604281B2022000F069F810BDB1
:10137000000C014010B50446002C0BDD01221103C6
:101380000B4801F0BBFAC4F57A7081B2012000F07D
:1013900057F80BE000224FF48051054801F0AEFAF7
:1013A00004F57A7081B2012000F04AF810BD000007
:1013B0000008014000BFFEE77047000070B5002143
:1013C00000230F22C47804B3154C246804F4E064AD
:1013D000C4F5E064210AC1F10403CA40447804FA68
:1013E00003F184781440214309010E4C0678A1557D
:1013F000047804F01F050124AC4005786D11AD00A0
:1014000005F1E025C5F8004109E0047804F01F0566
:101410000124AC40044D0678761145F8264070BD95
:101420000CED00E000E400E080E100E0024901434F
:10143000024A1160704700000000FA050CED00E060
:10144000B1F57A7F01DD4FF47A7101EBC1024FF6FD
:10145000FF7303EA820130B1012807D0022809D0C6
:1014600003280FD10AE0084A11800BE0064A121D3A
:10147000118007E0044A0832118003E0024A0C326E
:10148000118000BF00BF7047340400407047000067
:1014900029B1064A52690243044B5A6104E0034AE7
:1014A00052698243014B5A617047000000100240AC
:1014B00029B1064AD2690243044BDA6104E0034AC7
:1014C000D2698243014BDA6170470000001002408C
:1014D00029B1064A92690243044B9A6104E0034A27
:1014E00092698243014B9A617047000000100240EC
:1014F00030B500210022002400232D4D6D6805F039
:101500000C0121B1042905D0082923D105E0294D7A
:10151000056022E0274D05601FE0254D6D6805F44C
:101520007012234D6D6805F48034022505EB92425C
:101530001CB9214D554305600BE01D4D6D6805F448
:1015400000351DB11C4D5543056002E0194D554352
:10155000056002E0174D056000BF00BF144D6D68C7
:1015600005F0F0010909154D6B5C0568DD4045602B
:101570000F4D6D6805F4E061090A104D6B5C45681C
:10158000DD4085600A4D6D6805F46051C90A0B4D58
:101590006B5C4568DD40C560054D6D6805F44041F4
:1015A000890B074D6B5CC568B5FBF3F5056130BD74
:1015B0000010024000127A0000093D000E000020D9
:1015C0001E00002010B501210846FFF781FF012110
:1015D0002948FFF787FD10225102284801F080FAC0
:1015E00010220821264801F07BFA102251022448DB
:1015F00001F076FA00220821214801F07FF901224A
:1016000051031F4801F07AF900210220FFF718FF6B
:10161000102211021A4801F063FA102291021848B0
:1016200001F05EFA00224FF48051154801F066F98E
:1016300001229103124801F061F900210320FFF714
:10164000FFFE1022D1010F4801F04AFA10221102C8
:101650000C4801F045FA012211030A4801F04EF945
:101660000122D102074801F049F94FF47A710120B3
:10167000FFF7E6FE10BD0000000230000010014040
:10168000000C014000080140704710B500F002F85E
:1016900010BD00000CB50020019000903348006898
:1016A00040F480303149086000BF3048006800F4E1
:1016B000003000900198401C0190009818B90198E2
:1016C000B0F5A06FF1D12948006800F4003010B1E6
:1016D0000120009001E0002000900098012843D1F3
:1016E0002348006840F0100021490860084600685F
:1016F00020F0030008600846006840F0020008601F
:101700001A484068194948600846406848600846D9
:10171000406840F4806048600846406820F47C10CF
:1017200048600846406840F4E81048600846006891
:1017300040F08070086000BF0C48006800F0007046
:101740000028F9D00948406820F0030007494860A4
:101750000846406840F00200486000BF0348406807
:1017600000F00C000828F9D10CBD00000010024068
:10177000002002400648006820B105480068401E6D
:101780000349086003480068401C0249086070472C
:10179000080000200400002030B516480068164AF2
:1017A000B0FBF2F1B1F1807F01D301201DE021F007
:1017B0007F40401E4FF0E022506150170F2200285A
:1017C00007DA13071D0E0D4B00F00F04241F1D55E3
:1017D00003E013071C0E0A4B1C5400BF00204FF0FF
:1017E000E022906107201061002008B100BFFEE7F1
:1017F00030BD000024000020A086010018ED00E0AC
:1018000000E400E010B51348006840F00100114901
:10181000086008464068104908400E49486008467C
:1018200000680E4908400B4908600846006820F42B
:10183000802008600846406820F4FE0048604FF4AD
:101840001F008860FFF721FF4FF000600449086027
:1018500010BD0000001002400000FFF8FFFFF6FE80
:1018600008ED00E0F0B50C46154600220021068C7C
:101870004FF6FE773E400684028B018C4FF60C76C5
:1018800032407E1C06EA03162E433243104EB0420D
:101890000ED0104EB0420BD0B0F1804F08D00E4E9B
:1018A000B04205D00D4EB04202D00D4EB04206D12E
:1018B0004FF6FD76314044F00106314305E04FF626
:1018C000F576314044F00106314302830184F0BDD6
:1018D000002C01400034014000040040000800409A
:1018E000000C0040F0B50C461546002200210026F1
:1018F000078C4FF6EF7C07EA0C070784028B018CFC
:101900004FF6FF7707EA041640F6FF473A404FF6D6
:10191000FF7707EA03373A434FF6FF7707EA0527D1
:101920003A43114FB8420ED0104FB8420BD0B0F12D
:10193000804F08D00E4FB84205D00E4FB84202D0AB
:101940000D4FB84206D14FF6DF77394046F0100709
:10195000394305E04FF65F77394044F010073943CB
:1019600002830184F0BD0000002C014000340140DE
:101970000004004000080040000C0040F0B50C4698
:101980001546002200210026078C4FF6FF6C07EA5F
:101990000C070784828B018C4FF6FF7707EA042639
:1019A0004FF60C773A404FF6FF7707EA03172F43BD
:1019B0003A43114FB8420ED0104FB8420BD0B0F19D
:1019C000804F08D00E4FB84205D00E4FB84202D01B
:1019D0000D4FB84206D14FF6FF57394046F4807795
:1019E000394305E04FF2FF57394044F480773943DB
:1019F00082830184F0BD0000002C014000340140CE
:101A00000004004000080040000C0040F0B50C4607
:101A10001546002200210026078C4EF6FF7C07EABF
:101A20000C070784828B018C4FF6FF7707EA043698
:101A300040F6FF473A404FF6FF7707EA05273A435B
:101A40004FF6FF7707EA03373A43114FB8420ED0FB
:101A5000104FB8420BD0B0F1804F08D00E4FB842B3
:101A600005D00E4FB84202D00D4FB84206D14DF608
:101A7000FF77394046F48057394305E047F6FF5772
:101A8000394044F48057394382830184F0BD00001B
:101A9000002C0140003401400004004000080040D8
:101AA000000C00402DE9F041FFF766FB3A48007852
:101AB00000F00200002869D038480078401C3749FF
:101AC0000870087800EBD0714910A0EB410181B19A
:101AD0003148007800F00100B0B1FEF741FF304816
:101AE000D0E908211046FEF754FC0446FFF742FCFB
:101AF0000AE0FEF787FF2B48D0E908211046FEF7E1
:101B000048FC0446FFF710FC2448007805281ED145
:101B10002148007800F00100002837D022480068F2
:101B2000FEF719FC04460D4600F006FF8046FEF75E
:101B300012FC064622462B46FEF795FB1B4A03C2C3
:101B400000F0FAFE18490860FEF7BAFF1EE01348DD
:101B500000780A281AD116480068FEF7FCFB0446F4
:101B60000D4600F0DFFE8046FEF7F5FB06462246F6
:101B70002B46FEF778FB0F4A03C200F0D3FE0C4958
:101B80000860FEF7F5FF00200449087001210A48AB
:101B900000F0CDF8BDE8F0817000002000000020CA
:101BA000C0000020000100206C0000205800002030
:101BB0006800002060000020002C014010B54FF0AC
:101BC0008040008800F0100038B10A480068A0F595
:101BD0001C5010380749086006E00648006842F2C9
:101BE00010710844034908600121880700F09FF83C
:101BF00010BD00003800002000B589B0012102208E
:101C0000FFF756FC01210C20FFF762FC8020ADF8A5
:101C1000200018208DF8230003208DF8220008A949
:101C20002948FFF7D3F90320ADF8200008A9274879
:101C3000FFF7CCF948F69F40ADF818000020ADF84A
:101C40001400ADF81A00ADF8160005A9204800F000
:101C500031FA01211E4800F05BF801211C4800F018
:101C600069F86020ADF804000020ADF80C000120F8
:101C7000ADF806000020ADF80A0001A9144800F0F4
:101C8000E7F80821124800F035F90120ADF8060008
:101C90000020ADF80A0001A90D4800F039F908212B
:101CA0000B4800F085F90120ADF806000020ADF8E2
:101CB0000A0001A9064800F085F90821044800F04F
:101CC000BFF909B000BD000000080140000C014050
:101CD0000004004010B50C48008800F0100038B136
:101CE0000A480068A0F51C5010380849086006E052
:101CF0000648006842F21071084404490860012156
:101D0000014800F014F810BD000800403C0000201D
:101D100021B1028842F08002028004E002884FF67E
:101D20007F731A4002807047CA4302827047CA43D9
:101D30000282704721B1028842F00102028004E071
:101D400002884FF6FE731A4002807047F0B50C46C9
:101D500015461E460021002200230189028B038CB8
:101D60004FF6F877394021434FF6FC473A4040F2AE
:101D700001173A434FF6DD773B404FF6FF7707EA0E
:101D800006172F433B43018102830384F0BD00000B
:101D900070B505460C46244885420ED0234885423E
:101DA0000BD0B5F1804F08D02148854205D021489D
:101DB000854202D02048854200D100E000BF208843
:101DC00050B92389A28861882846FFF74BFDE18836
:101DD000284600F042F925E0208804280AD123890A
:101DE000A28861882846FFF77DFDE188284600F03B
:101DF0003DF917E0208808280AD12389A288618844
:101E00002846FFF7BBFDE188284600F03CF909E0D1
:101E10002389A28861882846FFF7F8FDE1882846D3
:101E200000F03AF970BD0000002C01400034014080
:101E30000004004000080040000C00401AB18389F3
:101E40000B43838102E083898B43838170470000C9
:101E500070B5002400220023058C4FF6EF76354044
:101E60000584028C8388048B48F6FF752C404FF65E
:101E7000FF452C400D884FF6FF7606EA05252C43DA
:101E80004FF6DF752A400D8906EA05152A434D886D
:101E900006EA05152A43154DA84202D0144DA84262
:101EA0001DD14FF67F752A404D894FF6FF7606EA21
:101EB00005152A434FF6BF752A408D8806EA051599
:101EC0002A434FF6FF352B404FF2FF752B408D898B
:101ED00006EA85052B43CD8906EA85052B438380D9
:101EE0000483CD880587028470BD0000002C01406A
:101EF000003401400A460021018B4FF2FF73194064
:101F00004FF6FF7303EA0223194301837047000071
:101F100070B5002400220023058C4FF6FF66354083
:101F20000584028C8388848B4FF68F752C404FF686
:101F3000FC752C400D882C434FF6FF552A400D8927
:101F40004FF6FF7606EA05252A434D8806EA052561
:101F50002A43154DA84202D0144DA8421DD14FF27C
:101F6000FF752A404D894FF6FF7606EA05252A437C
:101F70004FF6FF352A408D8806EA05252A434EF69E
:101F8000FF752B404DF6FF752B408D8906EA051530
:101F90002B43CD8906EA05152B4383808483CD88A6
:101FA0008587028470BD0000002C01400034014090
:101FB0000A460021818B4FF6F77319401143818344
:101FC0007047000070B5002200230024058C4EF6F7
:101FD000FF7635400584038C8488828B48F6FF7534
:101FE0002A404FF6FF452A400D884FF6FF7606EA55
:101FF00005252A434DF6FF752B400D8906EA053568
:102000002B434D8806EA05352B430B4DA84202D0E1
:102010000A4DA84208D14BF6FF752C408D894FF62A
:10202000FF7606EA85152C4384808283CD88A0F84C
:102030004050038470BD0000002C0140003401407A
:102040000A460021818B4FF2FF7319404FF6FF7350
:1020500003EA0223194381837047028B4FF6F3731F
:102060001A400283028B0A4302837047028B4FF2AD
:10207000FF331A400283028B4FF6FF7303EA0123FA
:102080001A4302837047828B4FF6F3731A408283A0
:10209000828B0A4382837047828B4FF2FF331A4050
:1020A0008283828B4FF6FF7303EA01231A438283F4
:1020B00070470000002202881D4B98420ED01D4B35
:1020C00098420BD0B0F1804F08D01B4B984205D0FE
:1020D0001A4B984202D01A4B984204D14FF68F7394
:1020E0001A404B881A43174B984207D0164B984218
:1020F00004D04FF6FF431A40CB881A4302808B88E6
:1021000083850B8803850A4B98420BD0094B984274
:1021100008D00E4B984205D00D4B984202D00D4B83
:10212000984201D10B7A0386012383827047000015
:10213000002C014000340140000400400008004031
:10214000000C00400010004000140040004001401E
:1021500000440140004801401FB504460121C80267
:10216000FFF7B6F9322C00DD322404EB4400C0EB5B
:10217000C4104FF6FF7101EAC000ADF80800472017
:10218000ADF804000020ADF80A00ADF806008DF8A7
:102190000C0001A90F48FFF78DFF01210D48FFF743
:1021A000C3FD012211460B48FFF748FE01210948F3
:1021B000FFF7C0FD19208DF8000003208DF8010005
:1021C00000208DF8020001208DF803006846FFF71B
:1021D000F5F81FBD002C014010B540F2255105480F
:1021E00000F082F8012804D1024800F01BF90249EE
:1021F000087010BD003801400C00002000B587B009
:10220000012144F20400FFF763F94FF40070ADF8C8
:10221000180018208DF81B0003208DF81A0006A95D
:102220002048FEF7D3FE4FF48060ADF8180004207C
:102230008DF81B0006A91B48FEF7C8FE4FF4E130DD
:1022400002900020ADF80C00ADF80E00ADF81000C3
:10225000ADF814000C20ADF8120002A9124800F0ED
:1022600075F80121104800F033F8012240F22551A1
:102270000D4800F046F84FF44070FFF7D7F82520DE
:102280008DF8040000208DF806000A208DF8050066
:1022900001208DF8070001A8FFF790F80248008898
:1022A00007B000BD000801400038014010B540F201
:1022B0002551054800F018F8012804D1024800F023
:1022C000B1F80249087010BD004800400D00002020
:1022D00021B1828942F40052828104E082894DF664
:1022E000FF731A408281704702460020B1F5007FDB
:1022F00000D100BF13880B400BB1012000E000208B
:102300007047F0B50346002400260025002040F663
:102310006A17B94200D100BF1846C1F3421401F058
:102320001F06012707FA06F5012C01D10C3004E045
:10233000022C01D1103000E014301AB107682F438D
:10234000076002E00768AF430760F0BD2DE9F04782
:1023500086B005460E460024A24600BFA1460027CF
:10236000B08900B100BF2F462C8A4CF6FF700440A4
:10237000F08804432C82AC894EF6F3100440B088F8
:1023800031890843718908430443AC81AC8A4FF614
:10239000FF400440B0890443AC8201A8FFF7A8F8CD
:1023A0001F48874202D1DDF810A001E0DDF80CA043
:1023B000A88900F4004040B10AEBCA0000EB0A1003
:1023C00031684900B0FBF1F807E00AEBCA0000EB06
:1023D0000A1031688900B0FBF1F86420B8FBF0F016
:1023E00004012009642101FB1089A88900F4004040
:1023F00040B1322000EBC900B0FBF1F000F0070063
:10240000044308E0322000EB09106421B0FBF1F036
:1024100000F00F0004432C8106B0BDE8F0870000F7
:102420000038014001468888C0F30800704700BFAB
:10243000FEE7490050EAC12018BF04204A0D18BF2A
:1024400040F0010040F2FF72B2EB515F08BF40F074
:102450000200012808BF052070472DE9F0414F1EFA
:1024600000EBC7010446D1E9000115461E4637F0CE
:1024700006020DD02A463346FDF7FBFE7F1E04EB15
:10248000C703D3E90023FDF74DFE37F00602F1D173
:10249000022F25D0042F13D0062F18BFBDE8F081DE
:1024A0002A463346FDF7E5FED4E90A23FDF73AFE56
:1024B0002A463346FDF7DDFED4E90823FDF732FE58
:1024C0002A463346FDF7D5FED4E90623FDF72AFE5A
:1024D0002A463346FDF7CDFED4E90423FDF722FE5C
:1024E0002A463346FDF7C5FED4E90223FDF71AFE5E
:1024F0002A463346FDF7BDFED4E90023BDE8F0418E
:10250000FDF710BE0122FEF7A3B8FDF70BBE0000D9
:10251000024A00201107FEF79BB8000001FDFFFFF3
:1025200002E008C8121F08C1002AFAD1704770479C
:10253000002001E001C1121F002AFBD170470000FA
:102540002DE9F84F04460D4621F0004000917349F3
:10255000814211DC7249884201DC06D12CB120464F
:102560002946BDE8F84FFFF7CDBF6E48002DCCBF20
:102570006D496E49BDE8F88F6D49814211DD6D49A5
:102580008142D8BF4FF0FF366DDD20462946FFF768
:1025900050FF042808BFFFF7BBFF20462946BDE8CF
:1025A000F88F6549654F25F00045814233DD644968
:1025B000814219DD002632464FF0804320462946ED
:1025C000FDF7B0FD80468A46012220462946FEF7E7
:1025D0003FF800223B46FDF746FE42465346FDF7D4
:1025E000B5FF04460D463EE001260022BA463B46B2
:1025F00020462946FDF796FD80460F4600225346A9
:1026000020462946FDF72FFE42463B46FDF79EFF3A
:1026100004460D4627E04B4981421BDDDFF828A127
:1026200002260022534620462946FDF722FE0022BC
:102630003B46FDF777FD80460F4600225346204675
:102640002946FDF710FE42463B46FDF77FFF044654
:102650000D4608E0032622462B4600203B49FDF7A5
:1026600075FF04460D4622462B4610461946FDF7D7
:1026700000FE8B46824602460B46FDF7FAFD0746F2
:102680000246334888460B4606217844FFF7E5FEAC
:1026900052465B46FDF7EDFD82462E488B463A4694
:1026A000434605217844FFF7D8FE3A464346FDF7F6
:1026B000E0FD02460B46002E504659460CDAFDF767
:1026C00031FD22462B46FDF7D4FD01B022462B46B4
:1026D000BDE8F04FFDF7CABDFDF724FD22462B46AD
:1026E000FDF7C7FD1C4A7A4402EBC603D3E9002379
:1026F000FDF7B9FD22462B46FDF7B5FD174A7A4492
:1027000002EBC603D3E90023FDF7B0FD009A002ACF
:10271000B8BF81F00041BDE8F88F00000000104410
:102720000000F07F182D4454FB21F93FFB21F9BF35
:102730000000DC3F0000203E0000F33F0000F03FBF
:102740000000E63F008003400000F83F0000F0BFBB
:102750001A050000D8040000760400003E040000C2
:102760002DE9F04D9446CCF1000423F000464CEAEC
:102770000404524F46EAD4749A46884621F0004237
:10278000BC4206D8454240EA050442EAD474BC4241
:1027900004D9BDE8F04D6246FFF7B7BEAAF1405537
:1027A000A5F17F6555EA0C040BD0022404EAAA7453
:1027B000434DDFF810E144EAD87452EA000B04D02C
:1027C0000CE0BDE8F04DFFF7BBBE002C14BF012CA0
:1027D000BDE8F08D022C30D0032C32D056EA0C0B21
:1027E0000AD0BE4220D1BA4209D126F0804622F05A
:1027F00080423346114617E000291ADB25E0DFF856
:10280000C8B0FB44002C04BFDBE90001BDE8F08D3B
:10281000012C02BFDBE9000181F00041BDE8F08D31
:10282000022C0AD0032C0CD0BA4212D1B8F1000FFE
:102830000BDA23482549BDE8F08D28462449BDE838
:10284000F08D28467146BDE8F08D1D482149BDE850
:10285000F08D921B12153C2AC4BF19481D490EDC8D
:10286000BAF1000FBEBF12F13C0F0020014606DB9B
:102870006246FDF76BFE21F00041FFF761FE002C80
:1028800008BFBDE8F08D012C04BF81F00041BDE818
:10289000F08D114A114B022C07D0FDF7E4FC2A46BB
:1028A000BDE8F04D0A4BFDF7DEBCFDF7DCFC2A4627
:1028B000BDE8F04D064BFDF7D9BC00000000F07FED
:1028C000182D4454FB2109C0D2030000FB21F9BF9D
:1028D000FB210940FB21F93F075C143326A6A13CEC
:1028E00001B56421009848430349086000BF0248CD
:1028F00000680028FBD108BD0800002022B1012A91
:1029000006D0022A0CD107E043690B43436107E07C
:1029100003690B43036103E0C3684B40C36000BF1E
:1029200000BF70474FF08040808C024A12688118C7
:10293000484270473800002003480088034A126864
:102940008118484270470000240800403C000020E5
:10295000FEF722FFFFF752FCFFF74EF9FDF790FE5E
:10296000FEF784FAFEF7DAFAFEF72CFE00213D4866
:102970003D4AC2E900103D48C2E904103C493D48C7
:102980003D4AC2E900103D48C2E9021000213C481E
:102990003C4AC2E900103C48C2E904103B493C48AB
:1029A0003C4AC2E900103C483C49C2E9020105200A
:1029B000FFF7D2FB00BF00F08BF840F6B831884239
:1029C000F9D3374903C92F4AC2E906013448D0E98F
:1029D0000010344AC2E900103348006840F0020099
:1029E0003149086000BF00F073F841F2707188420D
:1029F000F9D32E4903C91C4AC2E906012B4903C970
:102A00002B4A03C22848006840F0010026490860AC
:102A100026E01548D0E906633246244903C9FDF78C
:102A200022FC04460D460022224B20462946FDF793
:102A3000E7FC06D30022204B20462946FDF7C8FCC0
:102A40000BD20020FEF796FC0020FEF76DFC002163
:102A50001A48FFF76FF900BFFEE70A20FFF740FFB3
:102A6000D7E7000000C07240C00000200000144002
:102A70009A9999999999A93F400100209999E93F1C
:102A8000000079400001002000001640BA490C0205
:102A90002B87863F800100207B14AE47E17AB43F4C
:102AA000480000208000002070000020400000202E
:102AB0007800002000002440000024C0002C0140C9
:102AC0000248006800EB80004000704704000020CE
:102AD000024800686421B0FBF1F070470400002058
:102AE000F8B504460D461646ADF800508DF8036063
:102AF00003208DF802000E48844204D101210420F5
:102B0000FEF7E6FC0EE00B48844204D101210820C8
:102B1000FEF7DEFC06E00848844203D101211020C4
:102B2000FEF7D6FC69462046FEF750FAF8BD0000D5
:102B300000080140000C01400010014000000000AE
:102B40004FBB610567ACDD3F182D4454FB21E93FC5
:102B50009BF681D20B73EF3F182D4454FB21F93FB4
:102B6000E2652F227F2B7A3C075C143326A6813C3A
:102B7000BDCBF07A8807703C075C143326A6913CE5
:102B8000C4EB98999999C9BF711623FEC671BCBF51
:102B90006D9A74AFF2B0B3BF9AFDDE522DDEADBFB9
:102BA0002F6C6A2C44B4A2BF0D5555555555D53FD1
:102BB000FF8300922449C23F6E204CC5CD45B73FEC
:102BC000513DD0A0660DB13FEB0D76244B7BA93F64
:102BD00011DA22E33AAD903F00000000000000004F
:102BE000002C0008000000208C00000020250008B8
:102BF0008C2C00088C0000203405000030250008D3
:102C000000000000000000000000000000000000C4
:102C1000000001020304010203040607080902047C
:102C20000608000000A24A040000000000000000A6
:102C3000010203040607080900000000000000006C
:102C40000000000000000000000000000000000084
:102C50000000000000000000000000000000000074
:102C60000000000000000000000000000000000064
:102C7000000000000000000000000000000014C080
:0C2C8000000000000000164032000000C0
:0400000508000101ED
:00000001FF
