:020000040800F2
:10000000E005002001010008491300080311000861
:10001000451300085B090008FB22000800000000EF
:10002000000000000000000000000000551500085E
:10003000390E0008000000001D14000841160008D9
:100040001B0100081B0100081B0100081B01000820
:100050001B0100081B0100081B0100081B01000810
:100060001B0100081B0100083B0E00081B010008D3
:100070001B0100081B0100081B0100081B010008F0
:100080001B010008610C00081B0100081B0100088F
:100090001B0100081B0100081B0100084D0E000891
:1000A0001B010008711900081B0100081B01000852
:1000B000891A00081B010008A11B00081B01000889
:1000C0001B0100081B0100081B0100081B010008A0
:1000D0001B010008A52000081B0100087921000869
:1000E0001B0100081B0100081B010008DFF80CD0F1
:1000F00000F09CFA0048004701280008E0050020B5
:100100000648804706480047FEE7FEE7FEE7FEE7B1
:10011000FEE7FEE7FEE7FEE7FEE7FEE7D116000892
:10012000ED0000082DE9FE4F804681EA0300C00F74
:100130000C46009021F0004123F00045B8EB02008E
:10014000A94105D24046214690461C460B46024630
:1001500023F00040104347D0270DC7F30A00C3F334
:100160000A510290401A019040286BDAC3F3130041
:1001700040F4801B0098924620B10023D2EB030A82
:1001800063EB0B0B01985946C0F14002504600F05A
:100190004FF906460D4650465946019A00F067F958
:1001A00010EB08006141002487EA115284EAE773EA
:1001B0001A4340D0009A62B3019A012A4FEA0752CB
:1001C00015DC001B61EB02014FF0004202EA07520E
:1001D000CDE90042001C41F5801132462B4600F06B
:1001E00067F903B0BDE8F08F40462146F9E7001BF0
:1001F00061EB0201001C41F5801300185B412018DF
:10020000A2F5001747EB030140EAD570B6196D411E
:1002100011E06D084FEA360645EAC0754FEA07520D
:10022000001B61EB0201001C41F5801149084FEAF7
:1002300030000019514132462B4603B0BDE8F04F63
:1002400000F027B90098012240000023D0EB020201
:1002500063EBE073009821464FEAE074B8EB0000CE
:1002600061EB0401E9E783F000435BE781F00041C3
:1002700058E72DE9FE4F81EA030404F0004421F021
:10028000004100944FF0000B23F0004350EA0104BA
:100290005ED052EA03045BD0C3F30A54C1F30A559B
:1002A0002C44A4F2F3340194A0FB0254C1F31301D3
:1002B00041F48011C3F3130343F4801301FB0244A0
:1002C00000FB034E840A970A44EA815447EA8357A5
:1002D000A4FB076802958D0A05FB07854FEA932C5E
:1002E00004FB0C542705029D4FEA065847EA1637CF
:1002F000B5EB08056EEB070C870E920E47EA8117E7
:1003000042EA8312A7FB0201B6EB0B0164EB000487
:100310002B0D43EA0C335E1844EB1C50DA46514671
:10032000E7FB0201C5F313044FEA0B3343EA14530E
:100330004FEA0432019C43EA0603A4F10C04029440
:10034000009CCDE900B400F0B3F803B0BDE8F08F35
:1003500000200146F9E70EB5C10F80EAE0700844BD
:10036000CA07002140F233438DE80E000A460B46CF
:1003700000F09EF803B000BD0EB540F2334102918B
:100380000021CDE900110A460B4600F091F803B0B8
:1003900000BD70B5C1F30A5201F000450024C1F35D
:1003A000130140F2FF3341F480119A4201DA002038
:1003B00070BD40F233439A42A2F2334203DC524210
:1003C00000F045F800E090402C43F1D0404270BD71
:1003D00030B5041E71F1000404DB4FF000444042CC
:1003E00064EB0101141E73F1000405DB1C464FF0A1
:1003F0000043524263EB04038B4208BF824230BD8C
:1004000030B5041E71F1000404DB4FF0004440429B
:1004100064EB0101141E73F1000405DB1C464FF070
:100420000043524263EB0403994208BF904230BD3F
:10043000202A04DB203A00FA02F1002070479140A4
:10044000C2F1200320FA03F3194390407047202A99
:1004500004DB203A21FA02F00021704721FA02F36E
:10046000D040C2F120029140084319467047202A2B
:1004700006DBCB17203A41FA02F043EAE07306E0CC
:1004800041FA02F3D040C2F12002914008431946DC
:10049000704710B5141E73F1000408DA401C41F1D6
:1004A000000192185B411A4301D120F0010010BDF8
:1004B0002DE9F04D92469B4611B1B1FA81F202E06E
:1004C000B0FA80F220329046FFF7B2FF04460F46A2
:1004D00040EA0A0041EA0B0153465A46084313D04A
:1004E000114653EA010019D0C8F140025046FFF707
:1004F000AEFF05460E46504659464246FFF798FF66
:10050000084305D0012004E020463946BDE8F08DBF
:100510000020054346EAE0762C4337430A986305FA
:10052000E40AA0EB08000022FD0A44EA47540A301E
:1005300002D500200146E9E7010510196941DDE90E
:10054000084500196941BDE8F04DA2E72DE9F04DDD
:1005500081EA030404F0004B21F0004514464FF0FB
:10056000000A23F0004150EA050220D054EA0102BB
:100570001DD0C5F30A570246C5F31303C1F3130098
:10058000C1F30A5640F4801543F48013A7EB060824
:10059000101BD64608F2FD3873EB050002D308F1B4
:1005A000010801E092185B41B8F1000F03DA002066
:1005B0000146BDE8F08D00204FF4801106468446C8
:1005C0000EE0171B73EB050705D3121B63EB050346
:1005D00006434CEA010C49084FEA300092185B418F
:1005E00050EA0107EDD152EA030012D082EA04007A
:1005F00083EA0501084305D0101BAB4106D2012256
:10060000002306E000224FF0004302E06FF00102F9
:1006100053101AEB06004CEB085110EB0A0041EBAB
:100620000B01BDE8F04DFFF734BF0000064C074D4D
:1006300006E0E06840F0010394E8070098471034B2
:10064000AC42F6D3FFF756FD282A0008482A0008D6
:1006500070B521F0004303430CD0C1F30A550024C8
:10066000D5EB040564EB0403D617AD1AB34102DBE6
:100670000020014670BD201841EB025170BD000002
:1006800000B591B0002204214E4802F04DF900223D
:1006900008214C4802F048F900221021494802F094
:1006A00043F900222021474802F03EF90022402170
:1006B000444802F039F90121084600F0B1FE4248F1
:1006C00000F0E0FA41480690414807900020089069
:1006D0000520099000200A9080200B9040000C908B
:1006E00080000D9020200E9000020F9000201090AE
:1006F00006A9354800F082FB0121334800F0B6FA24
:100700000121480200F0ACFE0020019001208DF88C
:1007100008008DF809004FF4602003900020049039
:1007200005208DF8140001A928484C3800F07CF809
:1007300005230122022125484C3800F09DF80523AD
:100740000222032121484C3800F096F805230322A9
:1007500004211E484C3800F08FF805230422194666
:100760001A484C3800F088F805231A460621174825
:100770004C3800F081F8012114484C3800F035F86D
:10078000012112484C3800F025F810484C3800F090
:10079000CFF800BF0D484C3800F03CF80028F9D1E4
:1007A0000A484C3800F0D4F800BF08484C3800F034
:1007B00027F80028F9D1012104484C3800F0BDF891
:1007C00011B000BD00080140080002404C24014067
:1007D0008C00002021B1826842F00102826003E0B7
:1007E000826822F001028260704721B1826842F47F
:1007F0008072826003E0826822F4807282607047B7
:10080000014600208A6802F004020AB1012000E0DB
:1008100000207047014600208A6802F008020AB1F1
:10082000012000E00020704730B502460020002380
:1008300050680F4C20400D790C6844EA0524204391
:10084000506090680B4C2040D1E902542C434D7904
:1008500044EA450420439060D06A20F470000C7C88
:10086000641EE4B2234340EA0350D06230BD00006E
:10087000FFFEF0FFFDF7F1FFF0B504460D46002046
:100880000021092D11DDE068A5F10A0606EB4607F7
:10089000072606FA07F18843A5F10A0606EB460685
:1008A00003FA06F10843E0600CE0206905EB450718
:1008B000072606FA07F1884305EB450603FA06F119
:1008C00008432061072A0FDA606B561E06EB860785
:1008D0001F2606FA07F18843561E06EB860605FA20
:1008E00006F10843606322E00D2A0FDA206BD61F61
:1008F00006EB86071F2606FA07F18843D61F06EB8C
:10090000860605FA06F10843206310E0E06AA2F1CA
:100910000D0606EB86071F2606FA07F18843A2F1AB
:100920000D0606EB860605FA06F10843E062F0BD07
:10093000816841F008018160704721B1826842F40A
:10094000A002826003E0826822F4A0028260704705
:10095000816841F004018160704700BFFEE700003C
:100960002DE9F05F2448D0E908432246234903C912
:10097000FFF779FC82468B461F4852465B46D0E91A
:1009800000412046FFF775FC1B4AC2E90A011C48DA
:10099000D0E9084310462246D0E904613046FFF70B
:1009A00068FC80461448D0E90A4322464046FFF7D7
:1009B000B9FB114AC2E90A0110460022114BD0E9E5
:1009C0000A412046FFF71CFD05D200210D480A4AC6
:1009D000C2E90A100DE00849D1E90A4100220A4B98
:1009E0002046FFF7F5FC04D200210748024AC2E97D
:1009F0000A10BDE8F09F0000C00000204000002069
:100A00009800002000408F4000408FC02DE9F05F2B
:100A10002B48D0E9084322462A4903C9FFF723FCA3
:100A200082468B462649D1E9004152465B46204624
:100A3000FFF71FFC224AC2E90A012348D0E9064316
:100A400010462246D0E904613046FFF712FC80468A
:100A500089461B49D1E90A4322464946FFF762FB12
:100A6000174AC2E90A01104600221346D0E90A419A
:100A70002046FFF7C5FC10D21448B0F90000FFF77C
:100A80006AFC04460E48D0E90A6332462046FFF766
:100A900049FB0B4AC2E90A010FE00C48B0F900001B
:100AA000FFF759FC04460648D0E90A63324620465F
:100AB000FFF7DCFB024AC2E90A01BDE8F09F000033
:100AC0000801002048000020980000208800002035
:100AD0002DE9F0472648D0E9004126480CC82046B9
:100AE000FFF7C7FB224AC2E90A0101F07DFE064674
:100AF000FFF731FC04461E48D0E902633246204627
:100B0000FFF7B7FB80461A48D0E90A432246404621
:100B1000FFF708FB164AC2E90A0110460022164BED
:100B2000D0E90A412046FFF76BFC05D200211248AC
:100B30000F4AC2E90A100DE00D4800220F4BD0E920
:100B40000A412046FFF744FC04D200210B48084A22
:100B5000C2E90A100648D0E90A432246084903C9F7
:100B6000FFF7E0FA074AC2E90801BDE8F087000094
:100B7000500100205800002000001440000014C064
:100B800078000020C00000202DE9F05F2E48D0E959
:100B9000084322462D4903C9FFF765FB82468B4671
:100BA000294852465B46D0E90C412046FFF7BAFA85
:100BB000254AC2E90C011046D0E9004123480CC87F
:100BC0002046FFF756FB204AC2E90A011046D0E949
:100BD0000C432246D0E902613046FFF74AFB8046CB
:100BE0001948D0E90A4322464046FFF79BFA164AC5
:100BF000C2E90A011146D1E90A410022144B2046FC
:100C0000FFF7FEFB05D2002111480F4AC2E90A1086
:100C10000DE00D4800220F4BD0E90A412046FFF7B6
:100C2000D7FB04D200210B48074AC2E90A10064844
:100C3000D0E90A432246084903C9FFF714FB074AD3
:100C4000C2E90801BDE8F09F980100206000002083
:100C500000002440000024C0800000200801002083
:100C600010B54FF0007000F0B3F810BD21B102686C
:100C700042F00102026004E002684FF6FE731A407F
:100C80000260704701684FF6FE721140016000215A
:100C9000016041608160C1604B49884208D14A4986
:100CA0000839496841F00F01474A083A51608AE023
:100CB00045491431884208D143490839496841F00F
:100CC000F001414A083A51607DE03F4928318842AD
:100CD00008D13D490839496841F470613A4A083AF7
:100CE000516070E038493C31884208D136490839B2
:100CF000496841F47041344A083A516063E032492E
:100D00005031884208D130490839496841F470218E
:100D10002D4A083A516056E02B496431884208D187
:100D200029490839496841F47001274A083A516055
:100D300049E025497831884208D123490839496872
:100D400041F07061204A083A51603CE01F498842F6
:100D500006D1011F096841F00F01021F116032E046
:100D60001A491431884208D11849091F096841F00D
:100D7000F001164A121F116025E0144928318842FB
:100D800008D11249091F096841F470610F4A121F06
:100D9000116018E00D493C31884208D10B49091F08
:100DA000096841F47041094A121F11600BE00749BC
:100DB0005031884207D10549091F096841F4702163
:100DC000024A121F116070470800024008040240E6
:100DD00001460020002201F0805313B1054B1A6830
:100DE00001E0054B1A6802EA01030BB1012000E0A3
:100DF00000207047000402400000024010B50022AD
:100E0000026847F6F0739A430C6A8B6823430C69B7
:100E100023434C6923438C692343CC6923434C6AA5
:100E200023438C6A23431A430260CB6843600B68F8
:100E300083604B68C36010BD704710B5102000F090
:100E400011F810B1102000F007F810BD10B54FF4E4
:100E5000007000F001F810BD014908607047000003
:100E600014040140014600200022074B1B6803EADE
:100E70000102054B14331B680B4013B10AB101206A
:100E800000E00020704700000004014000B589B078
:100E90000121084600F0D4FA0121042000F0E0FA14
:100EA0000320ADF8200048208DF8230008A922482F
:100EB00000F09CF81C208DF81C000A208DF81D0005
:100EC00000208DF81E0001208DF81F0007A800F0FB
:100ED0003DFA0020ADF8100042F21070ADF8140099
:100EE0000020ADF81600ADF8120004A94FF08040C4
:100EF00001F046F80120ADF80C0001A9800700F0D0
:100F0000ADFE00231A4603214FF0804000F084FE1E
:100F10000121880700F06EFE01221146900700F0C3
:100F2000F3FE00204FF0804188840121880700F003
:100F300067FE09B000BD00000008014000B589B09F
:100F40000121042000F07CFA0121082000F088FA39
:100F5000C020ADF8200048208DF8230008A92148C2
:100F600000F044F81E208DF81C0009208DF81D00AB
:100F700000208DF81E0001208DF81F0007A800F04A
:100F8000E5F90020ADF8100042F21070ADF8140041
:100F90000020ADF81600ADF8120004A9124800F0C8
:100FA000EFFF0120ADF80C0001A90F4800F056FE3C
:100FB00000231A4603210C4800F02EFE01210A48A6
:100FC00000F018FE01221146074800F09DFE0020A7
:100FD0000549243108800121034800F011FE09B0C1
:100FE00000BD0000000C0140000800402DE9F04168
:100FF000024600250026002000230024002791F847
:1010000003C00CF00F0591F803C00CF0100CBCF1FC
:10101000000F03D091F802C04CEA050591F800C01A
:10102000BCF1000F31D0146800202BE04FF0010C10
:101030000CFA00F3B1F800C00CEA03069E4220D17E
:1010400083004FF00F0C0CFA03F7BC4305FA03FCC6
:101050004CEA040491F803C0BCF1280F06D14FF00C
:10106000010C0CFA00FCC2F814C00AE091F803C0AD
:10107000BCF1480F05D14FF0010C0CFA00FCC2F88E
:1010800010C0401C0828D1D31460B1F800C0BCF1D6
:10109000FF0F34DD546800202EE000F1080C4FF003
:1010A000010808FA0CF3B1F800C00CEA03069E42EE
:1010B00021D183004FF00F0C0CFA03F7BC4305FA63
:1010C00003FC4CEA040491F803C0BCF1280F05D1DD
:1010D00000F1080C08FA0CF8C2F8148091F803C06B
:1010E000BCF1480F07D100F1080C4FF0010808FAD5
:1010F0000CF8C2F81080401C0828CED35460BDE81C
:10110000F08100BFFEE700002DE9F04F8BB0604991
:101110000988A1F63400FFF71EF95E4A03C25C4954
:101120004988A1F65200FFF716F95A4AC2E90201AE
:1011300057498988A1F5C360FFF70DF9554AC2E9FF
:1011400004015349C988A1F2F370FFF704F9514A29
:10115000C2E906014E490989A1F64E00FFF7FBF8E6
:101160004C4AC2E908011146D1E9048181F00043EB
:101170001146D1E900614246304601F057FA044673
:101180000022454BFFF775F8CDE908014149D1E947
:10119000044181F000433F49D1E9026122463046D3
:1011A00001F044FA804600223B4BFFF762F8CDE99C
:1011B00006014FF033303949DDE90623FFF759F8CE
:1011C0008046894601F0A0FB35490968461A304639
:1011D000FFF7D2F8CDE900012E48D0E90863324686
:1011E0000098FFF746F82F4A2F4BCDE90201FFF791
:1011F00040F8CDE904012D480CC80498FEF792FF91
:1012000004464FF066322A4BFFF733F882464246D7
:101210004B46FFF728F8254A03C24FF033301F49E9
:10122000DDE90823FFF725F8CDE9040101F06CFBA7
:101230001B490968461A3046FFF79EF804461548D0
:10124000D0E9066332462046FFF713F88246154A76
:10125000154BFFF70EF8804616480CC84046FEF7BF
:1012600061FF4FF06632124BCDE90001FFF701F844
:10127000CDE90201DDE90423FEF7F5FF0D4A03C2C3
:1012800001F042FB064908600BB0BDE8F08F00009A
:101290008C00002098000020000050403333D33FE2
:1012A0005000002076830DF4F521943E400000208C
:1012B0006666E63F4800002010B50446002C0FDDAE
:1012C000012208210E4801F071FA00224FF400516A
:1012D0000B4801F06BFAA1B2022000F079F80EE0A1
:1012E00000220821064801F061FA01225103044856
:1012F00001F05CFA604281B2022000F069F810BD92
:10130000000C014010B50446002C0BDD0122110336
:101310000B4801F04BFAC4F57A7081B2012000F05D
:1013200057F80BE000224FF48051054801F03EFAD7
:1013300004F57A7081B2012000F04AF810BD000077
:101340000008014000BFFEE77047000070B50021B3
:1013500000230F22C47804B3154C246804F4E0641D
:10136000C4F5E064210AC1F10403CA40447804FAD8
:1013700003F184781440214309010E4C0678A155ED
:10138000047804F01F050124AC4005786D11AD0010
:1013900005F1E025C5F8004109E0047804F01F05D7
:1013A0000124AC40044D0678761145F8264070BD06
:1013B0000CED00E000E400E080E100E002490143C0
:1013C000024A1160704700000000FA050CED00E0D1
:1013D000B1F57A7F01DD4FF47A7101EBC1024FF66E
:1013E000FF7303EA820130B1012807D0022809D037
:1013F00003280FD10AE0084A11800BE0064A121DAB
:10140000118007E0044A0832118003E0024A0C32DE
:10141000118000BF00BF70473404004070470000D7
:1014200029B1064A52690243044B5A6104E0034A57
:1014300052698243014B5A6170470000001002401C
:1014400029B1064AD2690243044BDA6104E0034A37
:10145000D2698243014BDA617047000000100240FC
:1014600029B1064A92690243044B9A6104E0034A97
:1014700092698243014B9A6170470000001002405C
:1014800030B500210022002400232D4D6D6805F0A9
:101490000C0121B1042905D0082923D105E0294DEB
:1014A000056022E0274D05601FE0254D6D6805F4BD
:1014B0007012234D6D6805F48034022505EB9242CD
:1014C0001CB9214D554305600BE01D4D6D6805F4B9
:1014D00000351DB11C4D5543056002E0194D5543C3
:1014E000056002E0174D056000BF00BF144D6D6838
:1014F00005F0F0010909154D6B5C0568DD4045609C
:101500000F4D6D6805F4E061090A104D6B5C45688C
:10151000DD4085600A4D6D6805F46051C90A0B4DC8
:101520006B5C4568DD40C560054D6D6805F4404164
:10153000890B074D6B5CC568B5FBF3F5056130BDE4
:101540000010024000127A0000093D000E00002049
:101550001E000020704710B500F002F810BD00001A
:101560000CB50020019000903348006840F48030B2
:101570003149086000BF3048006800F40030009036
:101580000198401C0190009818B90198B0F5A06F1F
:10159000F1D12948006800F4003010B1012000901A
:1015A00001E0002000900098012843D12348006802
:1015B00040F01000214908600846006820F0030050
:1015C00008600846006840F0020008601A48406859
:1015D000194948600846406848600846406840F439
:1015E000806048600846406820F47C1048600846E7
:1015F000406840F4E81048600846006840F0807099
:10160000086000BF0C48006800F000700028F9D0A6
:101610000948406820F003000749486008464068D0
:1016200040F00200486000BF0348406800F00C0032
:101630000828F9D10CBD0000001002400020024033
:101640000648006820B105480068401E034908604C
:1016500003480068401C02490860704708000020E9
:101660000400002030B516480068164AB0FBF2F1BD
:10167000B1F1807F01D301201DE021F07F40401EA9
:101680004FF0E022506150170F22002807DA1307AD
:101690001D0E0D4B00F00F04241F1D5503E0130712
:1016A0001C0E0A4B1C5400BF00204FF0E02290613A
:1016B00007201061002008B100BFFEE730BD000028
:1016C00024000020A086010018ED00E000E400E006
:1016D00010B51348006840F0010011490860084641
:1016E0004068104908400E494860084600680E49A5
:1016F00008400B4908600846006820F48020086014
:101700000846406820F4FE0048604FF41F008860DF
:10171000FFF721FF4FF000600449086010BD000092
:10172000001002400000FFF8FFFFF6FE08ED00E0A9
:10173000F0B50C46154600220021068C4FF6FE77C8
:101740003E400684028B018C4FF60C7632407E1CA4
:1017500006EA03162E433243104EB0420ED0104E0E
:10176000B0420BD0B0F1804F08D00E4EB04205D041
:101770000D4EB04202D00D4EB04206D14FF6FD766E
:10178000314044F00106314305E04FF6F576314033
:1017900044F00106314302830184F0BD002C014076
:1017A000003401400004004000080040000C0040EC
:1017B000F0B50C461546002200210026078C4FF696
:1017C000EF7C07EA0C070784028B018C4FF6FF774A
:1017D00007EA041640F6FF473A404FF6FF7707EA5C
:1017E00003373A434FF6FF7707EA05273A43114F8D
:1017F000B8420ED0104FB8420BD0B0F1804F08D095
:101800000E4FB84205D00E4FB84202D00D4FB8422D
:1018100006D14FF6DF77394046F01007394305E02F
:101820004FF65F77394044F0100739430283018453
:10183000F0BD0000002C01400034014000040040D5
:1018400000080040000C0040F0B50C461546002290
:1018500000210026078C4FF6FF6C07EA0C0707846F
:10186000828B018C4FF6FF7707EA04264FF60C7740
:101870003A404FF6FF7707EA03172F433A43114FD9
:10188000B8420ED0104FB8420BD0B0F1804F08D004
:101890000E4FB84205D00E4FB84202D00D4FB8429D
:1018A00006D14FF6FF57394046F48077394305E0BB
:1018B0004FF2FF57394044F48077394382830184E3
:1018C000F0BD0000002C0140003401400004004045
:1018D00000080040000C0040F0B50C461546002200
:1018E00000210026078C4EF6FF7C07EA0C070784D0
:1018F000828B018C4FF6FF7707EA043640F6FF47EC
:101900003A404FF6FF7707EA05273A434FF6FF774D
:1019100007EA03373A43114FB8420ED0104FB8428E
:101920000BD0B0F1804F08D00E4FB84205D00E4F0B
:10193000B84202D00D4FB84206D14DF6FF7739407C
:1019400046F48057394305E047F6FF57394044F4E1
:101950008057394382830184F0BD0000002C014090
:10196000003401400004004000080040000C00402A
:101970002DE9F041FFF7C8FB3A48007800F002007B
:10198000002869D038480078401C3749087008782A
:1019900000EBD0714910A0EB410181B131480078D2
:1019A00000F00100B0B1FEF7DBFF3048D0E90A21BA
:1019B0001046FEF7EEFC0446FFF7A4FC0AE0FFF732
:1019C00025F82B48D0E90A211046FEF7E2FC044630
:1019D000FFF772FC2448007805281ED121480078C2
:1019E00000F00100002837D022480068FEF7B3FC61
:1019F00004460D4600F0F8FE8046FEF7ACFC0646B5
:101A000022462B46FEF72FFC1B4A03C200F0ECFED9
:101A100018490860FFF75CF81EE0134800780A28B0
:101A20001AD116480068FEF796FC04460D4600F0F1
:101A3000D1FE8046FEF78FFC064622462B46FEF777
:101A400012FC0F4A03C200F0C5FE0C490860FFF704
:101A50009BF800200449087001210A4800F0CDF8E5
:101A6000BDE8F0817000002000000020C0000020D0
:101A7000080100206C0000205800002068000020B1
:101A800060000020002C014010B54FF0804000881D
:101A900000F0100038B10A480068A0F51C5010385A
:101AA0000749086006E00648006842F210710844E1
:101AB000034908600121880700F09FF810BD00006D
:101AC0003800002000B589B001210220FFF7B8FCE2
:101AD00001210C20FFF7C4FC8020ADF82000182065
:101AE0008DF8230003208DF8220008A92948FFF76C
:101AF0007DFA0320ADF8200008A92748FFF776FA01
:101B000048F69F40ADF818000020ADF81400ADF87D
:101B10001A00ADF8160005A9204800F031FA01219D
:101B20001E4800F05BF801211C4800F069F86020B5
:101B3000ADF804000020ADF80C000120ADF806005F
:101B40000020ADF80A0001A9144800F0E7F80821C8
:101B5000124800F035F90120ADF806000020ADF87C
:101B60000A0001A90D4800F039F908210B4800F0DE
:101B700085F90120ADF806000020ADF80A0001A9A2
:101B8000064800F085F90821044800F0BFF909B0C3
:101B900000BD000000080140000C014000040040AE
:101BA00010B50C48008800F0100038B10A480068F1
:101BB000A0F51C5010380849086006E00648006887
:101BC00042F210710844044908600121014800F004
:101BD00014F810BD000800403C00002021B102882C
:101BE00042F08002028004E002884FF67F731A40C0
:101BF00002807047CA4302827047CA43028270471C
:101C000021B1028842F00102028004E002884FF60E
:101C1000FE731A4002807047F0B50C4615461E460A
:101C20000021002200230189028B038C4FF6F877F4
:101C3000394021434FF6FC473A4040F201173A43FE
:101C40004FF6DD773B404FF6FF7707EA06172F4345
:101C50003B43018102830384F0BD000070B505465B
:101C60000C46244885420ED0234885420BD0B5F15E
:101C7000804F08D02148854205D02148854202D0B6
:101C80002048854200D100E000BF208850B9238958
:101C9000A28861882846FFF74BFDE188284600F0BE
:101CA00042F925E0208804280AD12389A288618886
:101CB0002846FFF77DFDE188284600F03DF917E052
:101CC000208808280AD12389A28861882846FFF73E
:101CD000BBFDE188284600F03CF909E02389A28891
:101CE00061882846FFF7F8FDE188284600F03AF9B8
:101CF00070BD0000002C0140003401400004004091
:101D000000080040000C00401AB183890B43838116
:101D100002E083898B4383817047000070B5002403
:101D200000220023058C4FF6EF7635400584028CA7
:101D30008388048B48F6FF752C404FF6FF452C40F6
:101D40000D884FF6FF7606EA05252C434FF6DF7522
:101D50002A400D8906EA05152A434D8806EA05152D
:101D60002A43154DA84202D0144DA8421DD14FF66A
:101D70007F752A404D894FF6FF7606EA05152A43FE
:101D80004FF6BF752A408D8806EA05152A434FF69F
:101D9000FF352B404FF2FF752B408D8906EA8505F4
:101DA0002B43CD8906EA85052B4383800483CD88A8
:101DB0000587028470BD0000002C01400034014002
:101DC0000A460021018B4FF2FF7319404FF6FF7353
:101DD00003EA0223194301837047000070B5002411
:101DE00000220023058C4FF6FF6635400584028CE7
:101DF0008388848B4FF68F752C404FF6FC752C40F2
:101E00000D882C434FF6FF552A400D894FF6FF767B
:101E100006EA05252A434D8806EA05252A43154D7D
:101E2000A84202D0144DA8421DD14FF2FF752A409E
:101E30004D894FF6FF7606EA05252A434FF6FF3512
:101E40002A408D8806EA05252A434EF6FF752B4069
:101E50004DF6FF752B408D8906EA05152B43CD897C
:101E600006EA05152B4383808483CD888587028409
:101E700070BD0000002C0140003401400A460021E2
:101E8000818B4FF6F773194011438183704700002F
:101E900070B5002200230024058C4EF6FF763540F5
:101EA0000584038C8488828B48F6FF752A404FF6A0
:101EB000FF452A400D884FF6FF7606EA05252A439E
:101EC0004DF6FF752B400D8906EA05352B434D88ED
:101ED00006EA05352B430B4DA84202D00A4DA84215
:101EE00008D14BF6FF752C408D894FF6FF7606EA38
:101EF00085152C4384808283CD88A0F840500384CC
:101F000070BD0000002C0140003401400A46002151
:101F1000818B4FF2FF7319404FF6FF7303EA0223E0
:101F2000194381837047028B4FF6F3731A40028383
:101F3000028B0A4302837047028B4FF2FF331A4031
:101F40000283028B4FF6FF7303EA01231A430283D5
:101F50007047828B4FF6F3731A408283828B0A4359
:101F600082837047828B4FF2FF331A408283828BC9
:101F70004FF6FF7303EA01231A4382837047000080
:101F8000002202881D4B98420ED01D4B98420BD068
:101F9000B0F1804F08D01B4B984205D01A4B9842A5
:101FA00002D01A4B984204D14FF68F731A404B88D7
:101FB0001A43174B984207D0164B984204D04FF65D
:101FC000FF431A40CB881A4302808B8883850B8895
:101FD00003850A4B98420BD0094B984208D00E4B10
:101FE000984205D00D4B984202D00D4B984201D13A
:101FF0000B7A03860123838270470000002C014086
:10200000003401400004004000080040000C004083
:102010000010004000140040004001400044014016
:10202000004801401FB504460121C802FFF718FA15
:10203000322C00DD322404EB4400C0EBC4104FF618
:10204000FF7101EAC000ADF808004720ADF80400B8
:102050000020ADF80A00ADF806008DF80C0001A9CB
:102060000F48FFF78DFF01210D48FFF7C3FD012247
:1020700011460B48FFF748FE01210948FFF7C0FD54
:1020800019208DF8000003208DF8010000208DF844
:10209000020001208DF803006846FFF757F91FBDC5
:1020A000002C014010B540F22551054800F082F89F
:1020B000012804D1024800F01BF90249087010BD44
:1020C000003801400C00002000B587B0012144F227
:1020D0000400FFF7C5F94FF40070ADF818001820A0
:1020E0008DF81B0003208DF81A0006A92048FEF782
:1020F0007DFF4FF48060ADF8180004208DF81B00C0
:1021000006A91B48FEF772FF4FF4E1300290002051
:10211000ADF80C00ADF80E00ADF81000ADF81400ED
:102120000C20ADF8120002A9124800F075F8012148
:10213000104800F033F8012240F225510D4800F01C
:1021400046F84FF44070FFF739F925208DF8040068
:1021500000208DF806000A208DF8050001208DF87A
:10216000070001A8FFF7F2F80248008807B000BD99
:10217000000801400038014010B540F225510548E3
:1021800000F018F8012804D1024800F0B1F8024923
:10219000087010BD004800400D00002021B1828968
:1021A00042F40052828104E082894DF6FF731A40A6
:1021B0008281704702460020B1F5007F00D100BF48
:1021C00013880B400BB1012000E000207047F0B5F0
:1021D0000346002400260025002040F66A17B94275
:1021E00000D100BF1846C1F3421401F01F060127B9
:1021F00007FA06F5012C01D10C3004E0022C01D1C4
:10220000103000E014301AB107682F43076002E075
:102210000768AF430760F0BD2DE9F04786B005467B
:102220000E460024A24600BFA1460027B08900B197
:1022300000BF2F462C8A4CF6FF700440F088044300
:102240002C82AC894EF6F3100440B08831890843E3
:10225000718908430443AC81AC8A4FF6FF400440C7
:10226000B0890443AC8201A8FFF70AF91F488742EE
:1022700002D1DDF810A001E0DDF80CA0A88900F47F
:10228000004040B10AEBCA0000EB0A103168490077
:10229000B0FBF1F807E00AEBCA0000EB0A10316866
:1022A0008900B0FBF1F86420B8FBF0F004012009CC
:1022B000642101FB1089A88900F4004040B132205C
:1022C00000EBC900B0FBF1F000F00700044308E0A8
:1022D000322000EB09106421B0FBF1F000F00F0098
:1022E00004432C8106B0BDE8F087000000380140AF
:1022F00001468888C0F30800704700BFFEE7490028
:1023000050EAC12018BF04204A0D18BF40F0010058
:1023100040F2FF72B2EB515F08BF40F002000128AB
:1023200008BF052070472DE9F0414F1E00EBC701A3
:102330000446D1E9000115461E4637F006020DD0CD
:102340002A463346FDF795FF7F1E04EBC703D3E90A
:102350000023FDF7E7FE37F00602F1D1022F25D06A
:10236000042F13D0062F18BFBDE8F0812A4633464C
:10237000FDF77FFFD4E90A23FDF7D4FE2A46334652
:10238000FDF777FFD4E90823FDF7CCFE2A46334654
:10239000FDF76FFFD4E90623FDF7C4FE2A46334656
:1023A000FDF767FFD4E90423FDF7BCFE2A46334658
:1023B000FDF75FFFD4E90223FDF7B4FE2A4633465A
:1023C000FDF757FFD4E90023BDE8F041FDF7AABEB1
:1023D0000122FEF73DB9FDF7A5BE0000024A00202C
:1023E0001107FEF735B9000001FDFFFF02E008C844
:1023F000121F08C1002AFAD170477047002001E07F
:1024000001C1121F002AFBD1704700002DE9F84FCF
:1024100004460D4621F0004000917349814211DCD1
:102420007249884201DC06D12CB120462946BDE81C
:10243000F84FFFF7CDBF6E48002DCCBF6D496E49F8
:10244000BDE8F88F6D49814211DD6D498142D8BFE9
:102450004FF0FF366DDD20462946FFF750FF042878
:1024600008BFFFF7BBFF20462946BDE8F88F654946
:10247000654F25F00045814233DD6449814219DD15
:10248000002632464FF0804320462946FDF74AFE9B
:1024900080468A46012220462946FEF7D9F80022C6
:1024A0003B46FDF7E0FE42465346FEF74FF8044632
:1024B0000D463EE001260022BA463B46204629460C
:1024C000FDF730FE80460F4600225346204629463F
:1024D000FDF7C9FE42463B46FEF738F804460D4676
:1024E00027E04B4981421BDDDFF828A102260022AC
:1024F000534620462946FDF7BCFE00223B46FDF729
:1025000011FE80460F460022534620462946FDF71D
:10251000AAFE42463B46FEF719F804460D4608E07F
:10252000032622462B4600203B49FEF70FF80446BF
:102530000D4622462B4610461946FDF79AFE8B465D
:10254000824602460B46FDF794FE07460246334894
:1025500088460B4606217844FFF7E5FE52465B4667
:10256000FDF787FE82462E488B463A4643460521B4
:102570007844FFF7D8FE3A464346FDF77AFE024616
:102580000B46002E504659460CDAFDF7CBFD22468D
:102590002B46FDF76EFE01B022462B46BDE8F04FFC
:1025A000FDF764BEFDF7BEFD22462B46FDF761FE3A
:1025B0001C4A7A4402EBC603D3E90023FDF753FE1D
:1025C00022462B46FDF74FFE174A7A4402EBC6031C
:1025D000D3E90023FDF74AFE009A002AB8BF81F034
:1025E0000041BDE8F88F0000000010440000F07FBB
:1025F000182D4454FB21F93FFB21F9BF0000DC3FBB
:102600000000203E0000F33F0000F03F0000E63FE6
:10261000008003400000F83F0000F0BF9604000077
:1026200054040000F2030000BA0300002DE9F04D4D
:102630009446CCF1000423F000464CEA0404524FC7
:1026400046EAD4749A46884621F00042BC4206D835
:10265000454240EA050442EAD474BC4204D9BDE8CC
:10266000F04D6246FFF7B7BEAAF14055A5F17F6570
:1026700055EA0C040BD0022404EAAA74434DDFF897
:1026800010E144EAD87452EA000B04D00CE0BDE833
:10269000F04DFFF7BBBE002C14BF012CBDE8F08D40
:1026A000022C30D0032C32D056EA0C0B0AD0BE429A
:1026B00020D1BA4209D126F0804622F0804233462A
:1026C000114617E000291ADB25E0DFF8C8B0FB440B
:1026D000002C04BFDBE90001BDE8F08D012C02BF36
:1026E000DBE9000181F00041BDE8F08D022C0AD049
:1026F000032C0CD0BA4212D1B8F1000F0BDA2348E8
:102700002549BDE8F08D28462449BDE8F08D2846CE
:102710007146BDE8F08D1D482149BDE8F08D921B42
:1027200012153C2AC4BF19481D490EDCBAF1000F2E
:10273000BEBF12F13C0F0020014606DB6246FDF7EA
:1027400005FF21F00041FFF761FE002C08BFBDE846
:10275000F08D012C04BF81F00041BDE8F08D114ADD
:10276000114B022C07D0FDF77EFD2A46BDE8F04D47
:102770000A4BFDF778BDFDF776FD2A46BDE8F04D22
:10278000064BFDF773BD00000000F07F182D445488
:10279000FB2109C04E030000FB21F9BFFB210940CA
:1027A000FB21F93F075C143326A6A13C22B1012A84
:1027B00006D0022A0CD107E043690B43436107E0CE
:1027C00003690B43036103E0C3684B40C36000BF70
:1027D00000BF70474FF08040808C024A1268811819
:1027E000484270473800002003480088034A1268B6
:1027F0008118484270470000240800403C00002037
:10280000FEF730FFFFF760FCFFF75CF9FDF738FFDC
:10281000FEF73CFBFEF792FB0520FFF703FC0021CF
:102820002548264AC2E900102548C2E90410254976
:102830002548264AC2E900102548C2E902100021B5
:102840002448254AC2E9001000202449C2E90201B7
:1028500023482449244A03C224482549083AC2E9A6
:10286000040100BF00F058F840F6B8318842F9D3AF
:10287000204903C9184AC2E908011E48D0E90010DE
:102880001D4AC2E900101D48006840F002001B49C3
:1028900008601B48D0E90010084AC2E9081018492E
:1028A00003C9184A03C21548006840F001001349E3
:1028B000086000BFFEE7000000C07240C0000020BA
:1028C000000014409A9999999999A93F50010020C4
:1028D0009999E93F00007940080100200000164066
:1028E000BA490C022B87863F980100207B14AE4723
:1028F000E17AB43F480000208000002070000020F2
:1029000040000020780000200248006800EB8000B2
:102910004000704704000020024800686421B0FBBA
:10292000F1F0704704000020F8B504460D46164645
:10293000ADF800508DF8036003208DF802000E48BA
:10294000844204D101210420FEF78AFD0EE00B48E9
:10295000844204D101210820FEF782FD06E00848E8
:10296000844203D101211020FEF77AFD69462046FA
:10297000FEF73CFBF8BD000000080140000C0140E0
:1029800000100140000000004FBB610567ACDD3F57
:10299000182D4454FB21E93F9BF681D20B73EF3F86
:1029A000182D4454FB21F93FE2652F227F2B7A3CFE
:1029B000075C143326A6813CBDCBF07A8807703CB7
:1029C000075C143326A6913CC4EB98999999C9BF2A
:1029D000711623FEC671BCBF6D9A74AFF2B0B3BF5F
:1029E0009AFDDE522DDEADBF2F6C6A2C44B4A2BF1F
:1029F0000D5555555555D53FFF8300922449C23F8B
:102A00006E204CC5CD45B73F513DD0A0660DB13FBE
:102A1000EB0D76244B7BA93F11DA22E33AAD903FD0
:102A20000000000000000000482A0008000000200C
:102A30008C000000EC230008D42A00088C00002041
:102A400054050000FC230008000000000000000006
:102A50000000000000000000000001020304010269
:102A600003040607080902040608000000A24A043D
:102A7000000000000000000001020304060708092E
:102A80000000000000000000000000000000000046
:102A90000000000000000000000000000000000036
:102AA0000000000000000000000000000000000026
:102AB0000000000000000000000000000000000016
:102AC00000000000000014C00000000000001640DC
:042AD00032000000D0
:0400000508000101ED
:00000001FF
